{
  "_format": "hh-sol-artifact-1",
  "contractName": "ICO",
  "sourceName": "contracts/ICO.sol",
  "abi": [
    {
      "inputs": [
        {
          "internalType": "address",
          "name": "tokenAddress",
          "type": "address"
        }
      ],
      "stateMutability": "nonpayable",
      "type": "constructor"
    },
    {
      "inputs": [],
      "name": "MAX_PURCHASE_AMOUNT",
      "outputs": [
        {
          "internalType": "uint256",
          "name": "",
          "type": "uint256"
        }
      ],
      "stateMutability": "view",
      "type": "function"
    },
    {
      "inputs": [],
      "name": "MIN_PURCHASE_AMOUNT",
      "outputs": [
        {
          "internalType": "uint256",
          "name": "",
          "type": "uint256"
        }
      ],
      "stateMutability": "view",
      "type": "function"
    },
    {
      "inputs": [],
      "name": "claim",
      "outputs": [
        {
          "internalType": "bool",
          "name": "",
          "type": "bool"
        }
      ],
      "stateMutability": "nonpayable",
      "type": "function"
    },
    {
      "inputs": [],
      "name": "deposit",
      "outputs": [
        {
          "internalType": "bool",
          "name": "",
          "type": "bool"
        }
      ],
      "stateMutability": "payable",
      "type": "function"
    },
    {
      "inputs": [
        {
          "internalType": "address",
          "name": "",
          "type": "address"
        }
      ],
      "name": "deposits",
      "outputs": [
        {
          "internalType": "uint256",
          "name": "",
          "type": "uint256"
        }
      ],
      "stateMutability": "view",
      "type": "function"
    },
    {
      "inputs": [],
      "name": "endTime",
      "outputs": [
        {
          "internalType": "uint256",
          "name": "",
          "type": "uint256"
        }
      ],
      "stateMutability": "view",
      "type": "function"
    },
    {
      "inputs": [],
      "name": "hardCap",
      "outputs": [
        {
          "internalType": "uint256",
          "name": "",
          "type": "uint256"
        }
      ],
      "stateMutability": "view",
      "type": "function"
    },
    {
      "inputs": [],
      "name": "owner",
      "outputs": [
        {
          "internalType": "address payable",
          "name": "",
          "type": "address"
        }
      ],
      "stateMutability": "view",
      "type": "function"
    },
    {
      "inputs": [],
      "name": "softCap",
      "outputs": [
        {
          "internalType": "uint256",
          "name": "",
          "type": "uint256"
        }
      ],
      "stateMutability": "view",
      "type": "function"
    },
    {
      "inputs": [],
      "name": "startTime",
      "outputs": [
        {
          "internalType": "uint256",
          "name": "",
          "type": "uint256"
        }
      ],
      "stateMutability": "view",
      "type": "function"
    },
    {
      "inputs": [],
      "name": "token",
      "outputs": [
        {
          "internalType": "contract ICOToken",
          "name": "",
          "type": "address"
        }
      ],
      "stateMutability": "view",
      "type": "function"
    },
    {
      "inputs": [],
      "name": "totalEtherRaised",
      "outputs": [
        {
          "internalType": "uint256",
          "name": "",
          "type": "uint256"
        }
      ],
      "stateMutability": "view",
      "type": "function"
    },
    {
      "inputs": [],
      "name": "withdraw",
      "outputs": [
        {
          "internalType": "bool",
          "name": "",
          "type": "bool"
        }
      ],
      "stateMutability": "nonpayable",
      "type": "function"
    }
  ],
  "bytecode": "0x608060405267016345785d8a0000600255670de0b6b3a76400006003556000600455636458479260055563645999126006553480156200003e57600080fd5b50604051620013d0380380620013d0833981810160405281019062000064919062000156565b806000806101000a81548173ffffffffffffffffffffffffffffffffffffffff021916908373ffffffffffffffffffffffffffffffffffffffff16021790555033600160006101000a81548173ffffffffffffffffffffffffffffffffffffffff021916908373ffffffffffffffffffffffffffffffffffffffff1602179055505062000188565b600080fd5b600073ffffffffffffffffffffffffffffffffffffffff82169050919050565b60006200011e82620000f1565b9050919050565b620001308162000111565b81146200013c57600080fd5b50565b600081519050620001508162000125565b92915050565b6000602082840312156200016f576200016e620000ec565b5b60006200017f848285016200013f565b91505092915050565b61123880620001986000396000f3fe6080604052600436106100c25760003560e01c806378e979251161007f578063d0e30db011610059578063d0e30db01461024a578063fb86a40414610268578063fc0c546a14610293578063fc7e286d146102be576100c2565b806378e97925146101c95780638da5cb5b146101f4578063906a26e01461021f576100c2565b80633197cbb6146100c75780633ccfd60b146100f25780634e71d92d1461011d57806354545bfb1461014857806360a09a0d14610173578063691a58421461019e575b600080fd5b3480156100d357600080fd5b506100dc6102fb565b6040516100e99190610a5a565b60405180910390f35b3480156100fe57600080fd5b50610107610301565b6040516101149190610a90565b60405180910390f35b34801561012957600080fd5b506101326104d3565b60405161013f9190610a90565b60405180910390f35b34801561015457600080fd5b5061015d610761565b60405161016a9190610a5a565b60405180910390f35b34801561017f57600080fd5b5061018861076c565b6040516101959190610a5a565b60405180910390f35b3480156101aa57600080fd5b506101b3610777565b6040516101c09190610a5a565b60405180910390f35b3480156101d557600080fd5b506101de61077d565b6040516101eb9190610a5a565b60405180910390f35b34801561020057600080fd5b50610209610783565b6040516102169190610aec565b60405180910390f35b34801561022b57600080fd5b506102346107a9565b6040516102419190610a5a565b60405180910390f35b6102526107af565b60405161025f9190610a90565b60405180910390f35b34801561027457600080fd5b5061027d6109ff565b60405161028a9190610a5a565b60405180910390f35b34801561029f57600080fd5b506102a8610a05565b6040516102b59190610b66565b60405180910390f35b3480156102ca57600080fd5b506102e560048036038101906102e09190610bc4565b610a29565b6040516102f29190610a5a565b60405180910390f35b60065481565b60008073ffffffffffffffffffffffffffffffffffffffff163373ffffffffffffffffffffffffffffffffffffffff1603610371576040517f08c379a000000000000000000000000000000000000000000000000000000000815260040161036890610c4e565b60405180910390fd5b60065442116103b5576040517f08c379a00000000000000000000000000000000000000000000000000000000081526004016103ac90610cba565b60405180910390fd5b600254600454106103fb576040517f08c379a00000000000000000000000000000000000000000000000000000000081526004016103f290610d26565b60405180910390fd5b6000600760003373ffffffffffffffffffffffffffffffffffffffff1673ffffffffffffffffffffffffffffffffffffffff1681526020019081526020016000205490506000600760003373ffffffffffffffffffffffffffffffffffffffff1673ffffffffffffffffffffffffffffffffffffffff168152602001908152602001600020819055503373ffffffffffffffffffffffffffffffffffffffff166108fc829081150290604051600060405180830381858888f193505050501580156104ca573d6000803e3d6000fd5b50600191505090565b60008073ffffffffffffffffffffffffffffffffffffffff163373ffffffffffffffffffffffffffffffffffffffff1603610543576040517f08c379a000000000000000000000000000000000000000000000000000000000815260040161053a90610c4e565b60405180910390fd5b600254600454101561058a576040517f08c379a000000000000000000000000000000000000000000000000000000000815260040161058190610d92565b60405180910390fd5b60065442116105db5760035460045410156105da576040517f08c379a00000000000000000000000000000000000000000000000000000000081526004016105d190610dfe565b60405180910390fd5b5b6000600760003373ffffffffffffffffffffffffffffffffffffffff1673ffffffffffffffffffffffffffffffffffffffff16815260200190815260200160002054905060008111610662576040517f08c379a000000000000000000000000000000000000000000000000000000000815260040161065990610e90565b60405180910390fd5b60006103e8826106729190610edf565b90506000600760003373ffffffffffffffffffffffffffffffffffffffff1673ffffffffffffffffffffffffffffffffffffffff1681526020019081526020016000208190555060008054906101000a900473ffffffffffffffffffffffffffffffffffffffff1673ffffffffffffffffffffffffffffffffffffffff1663a9059cbb33836040518363ffffffff1660e01b8152600401610714929190610f30565b6020604051808303816000875af1158015610733573d6000803e3d6000fd5b505050506040513d601f19601f820116820180604052508101906107579190610f85565b5060019250505090565b662386f26fc1000081565b66b1a2bc2ec5000081565b60045481565b60055481565b600160009054906101000a900473ffffffffffffffffffffffffffffffffffffffff1681565b60025481565b60008073ffffffffffffffffffffffffffffffffffffffff163373ffffffffffffffffffffffffffffffffffffffff160361081f576040517f08c379a000000000000000000000000000000000000000000000000000000000815260040161081690610c4e565b60405180910390fd5b60035460045410610865576040517f08c379a000000000000000000000000000000000000000000000000000000000815260040161085c90610ffe565b60405180910390fd5b6005544210156108aa576040517f08c379a00000000000000000000000000000000000000000000000000000000081526004016108a19061106a565b60405180910390fd5b6006544211156108ef576040517f08c379a00000000000000000000000000000000000000000000000000000000081526004016108e6906110d6565b60405180910390fd5b662386f26fc10000341015610939576040517f08c379a000000000000000000000000000000000000000000000000000000000815260040161093090611142565b60405180910390fd5b66b1a2bc2ec50000341115610983576040517f08c379a000000000000000000000000000000000000000000000000000000000815260040161097a906111ae565b60405180910390fd5b600034905080600760003373ffffffffffffffffffffffffffffffffffffffff1673ffffffffffffffffffffffffffffffffffffffff16815260200190815260200160002060008282546109d791906111ce565b9250508190555080600460008282546109f091906111ce565b92505081905550600191505090565b60035481565b60008054906101000a900473ffffffffffffffffffffffffffffffffffffffff1681565b60076020528060005260406000206000915090505481565b6000819050919050565b610a5481610a41565b82525050565b6000602082019050610a6f6000830184610a4b565b92915050565b60008115159050919050565b610a8a81610a75565b82525050565b6000602082019050610aa56000830184610a81565b92915050565b600073ffffffffffffffffffffffffffffffffffffffff82169050919050565b6000610ad682610aab565b9050919050565b610ae681610acb565b82525050565b6000602082019050610b016000830184610add565b92915050565b6000819050919050565b6000610b2c610b27610b2284610aab565b610b07565b610aab565b9050919050565b6000610b3e82610b11565b9050919050565b6000610b5082610b33565b9050919050565b610b6081610b45565b82525050565b6000602082019050610b7b6000830184610b57565b92915050565b600080fd5b6000610b9182610aab565b9050919050565b610ba181610b86565b8114610bac57600080fd5b50565b600081359050610bbe81610b98565b92915050565b600060208284031215610bda57610bd9610b81565b5b6000610be884828501610baf565b91505092915050565b600082825260208201905092915050565b7f496e76616c696420616464726573730000000000000000000000000000000000600082015250565b6000610c38600f83610bf1565b9150610c4382610c02565b602082019050919050565b60006020820190508181036000830152610c6781610c2b565b9050919050565b7f49434f20686173206e6f7420656e646564207965740000000000000000000000600082015250565b6000610ca4601583610bf1565b9150610caf82610c6e565b602082019050919050565b60006020820190508181036000830152610cd381610c97565b9050919050565b7f536f66742063617020686173206265656e207265616368656400000000000000600082015250565b6000610d10601983610bf1565b9150610d1b82610cda565b602082019050919050565b60006020820190508181036000830152610d3f81610d03565b9050919050565b7f536f66742063617020686173206e6f74206265656e2072656163686564000000600082015250565b6000610d7c601d83610bf1565b9150610d8782610d46565b602082019050919050565b60006020820190508181036000830152610dab81610d6f565b9050919050565b7f486172642063617020686173206e6f74206265656e2072656163686564000000600082015250565b6000610de8601d83610bf1565b9150610df382610db2565b602082019050919050565b60006020820190508181036000830152610e1781610ddb565b9050919050565b7f596f7520646f6e2774206861766520616e7920746f6b656e7320746f20636c6160008201527f696d000000000000000000000000000000000000000000000000000000000000602082015250565b6000610e7a602283610bf1565b9150610e8582610e1e565b604082019050919050565b60006020820190508181036000830152610ea981610e6d565b9050919050565b7f4e487b7100000000000000000000000000000000000000000000000000000000600052601160045260246000fd5b6000610eea82610a41565b9150610ef583610a41565b9250828202610f0381610a41565b91508282048414831517610f1a57610f19610eb0565b5b5092915050565b610f2a81610b86565b82525050565b6000604082019050610f456000830185610f21565b610f526020830184610a4b565b9392505050565b610f6281610a75565b8114610f6d57600080fd5b50565b600081519050610f7f81610f59565b92915050565b600060208284031215610f9b57610f9a610b81565b5b6000610fa984828501610f70565b91505092915050565b7f4861726420636170207265616368656400000000000000000000000000000000600082015250565b6000610fe8601083610bf1565b9150610ff382610fb2565b602082019050919050565b6000602082019050818103600083015261101781610fdb565b9050919050565b7f49434f20686173206e6f74207374617274656420796574000000000000000000600082015250565b6000611054601783610bf1565b915061105f8261101e565b602082019050919050565b6000602082019050818103600083015261108381611047565b9050919050565b7f49434f2068617320656e64656400000000000000000000000000000000000000600082015250565b60006110c0600d83610bf1565b91506110cb8261108a565b602082019050919050565b600060208201905081810360008301526110ef816110b3565b9050919050565b7f507572636861736520616d6f756e7420746f6f20736d616c6c00000000000000600082015250565b600061112c601983610bf1565b9150611137826110f6565b602082019050919050565b6000602082019050818103600083015261115b8161111f565b9050919050565b7f507572636861736520616d6f756e7420746f6f206c6172676500000000000000600082015250565b6000611198601983610bf1565b91506111a382611162565b602082019050919050565b600060208201905081810360008301526111c78161118b565b9050919050565b60006111d982610a41565b91506111e483610a41565b92508282019050808211156111fc576111fb610eb0565b5b9291505056fea264697066735822122079d1cd62a5370e1e3e25bd3131ca2106b4d4058de68a454bf65e14c6e4f726b164736f6c63430008110033",
  "linkReferences": {},
  "deployedLinkReferences": {}
}