{
  "_format": "hh-sol-artifact-1",
  "contractName": "ICOToken",
  "sourceName": "contracts/ICOToken.sol",
  "abi": [
    {
      "inputs": [],
      "stateMutability": "nonpayable",
      "type": "constructor"
    },
    {
      "anonymous": false,
      "inputs": [
        {
          "indexed": true,
          "internalType": "address",
          "name": "owner",
          "type": "address"
        },
        {
          "indexed": true,
          "internalType": "address",
          "name": "spender",
          "type": "address"
        },
        {
          "indexed": false,
          "internalType": "uint256",
          "name": "value",
          "type": "uint256"
        }
      ],
      "name": "Approval",
      "type": "event"
    },
    {
      "anonymous": false,
      "inputs": [
        {
          "indexed": true,
          "internalType": "address",
          "name": "from",
          "type": "address"
        },
        {
          "indexed": true,
          "internalType": "address",
          "name": "to",
          "type": "address"
        },
        {
          "indexed": false,
          "internalType": "uint256",
          "name": "value",
          "type": "uint256"
        }
      ],
      "name": "Transfer",
      "type": "event"
    },
    {
      "inputs": [
        {
          "internalType": "address",
          "name": "",
          "type": "address"
        },
        {
          "internalType": "address",
          "name": "",
          "type": "address"
        }
      ],
      "name": "_allowances",
      "outputs": [
        {
          "internalType": "uint256",
          "name": "",
          "type": "uint256"
        }
      ],
      "stateMutability": "view",
      "type": "function"
    },
    {
      "inputs": [],
      "name": "_totalSupply",
      "outputs": [
        {
          "internalType": "uint256",
          "name": "",
          "type": "uint256"
        }
      ],
      "stateMutability": "view",
      "type": "function"
    },
    {
      "inputs": [
        {
          "internalType": "address",
          "name": "from",
          "type": "address"
        },
        {
          "internalType": "address",
          "name": "to",
          "type": "address"
        },
        {
          "internalType": "uint256",
          "name": "amount",
          "type": "uint256"
        }
      ],
      "name": "_transfer",
      "outputs": [],
      "stateMutability": "nonpayable",
      "type": "function"
    },
    {
      "inputs": [
        {
          "internalType": "address",
          "name": "own",
          "type": "address"
        },
        {
          "internalType": "address",
          "name": "spender",
          "type": "address"
        }
      ],
      "name": "allowance",
      "outputs": [
        {
          "internalType": "uint256",
          "name": "",
          "type": "uint256"
        }
      ],
      "stateMutability": "view",
      "type": "function"
    },
    {
      "inputs": [
        {
          "internalType": "address",
          "name": "spender",
          "type": "address"
        },
        {
          "internalType": "uint256",
          "name": "amount",
          "type": "uint256"
        }
      ],
      "name": "approve",
      "outputs": [
        {
          "internalType": "bool",
          "name": "",
          "type": "bool"
        }
      ],
      "stateMutability": "nonpayable",
      "type": "function"
    },
    {
      "inputs": [
        {
          "internalType": "address",
          "name": "who",
          "type": "address"
        }
      ],
      "name": "balanceOf",
      "outputs": [
        {
          "internalType": "uint256",
          "name": "",
          "type": "uint256"
        }
      ],
      "stateMutability": "view",
      "type": "function"
    },
    {
      "inputs": [
        {
          "internalType": "address",
          "name": "",
          "type": "address"
        }
      ],
      "name": "balances",
      "outputs": [
        {
          "internalType": "uint256",
          "name": "",
          "type": "uint256"
        }
      ],
      "stateMutability": "view",
      "type": "function"
    },
    {
      "inputs": [],
      "name": "decimals",
      "outputs": [
        {
          "internalType": "uint8",
          "name": "",
          "type": "uint8"
        }
      ],
      "stateMutability": "view",
      "type": "function"
    },
    {
      "inputs": [
        {
          "internalType": "uint256",
          "name": "amount",
          "type": "uint256"
        }
      ],
      "name": "mint",
      "outputs": [],
      "stateMutability": "nonpayable",
      "type": "function"
    },
    {
      "inputs": [],
      "name": "name",
      "outputs": [
        {
          "internalType": "string",
          "name": "",
          "type": "string"
        }
      ],
      "stateMutability": "view",
      "type": "function"
    },
    {
      "inputs": [],
      "name": "owner",
      "outputs": [
        {
          "internalType": "address",
          "name": "",
          "type": "address"
        }
      ],
      "stateMutability": "view",
      "type": "function"
    },
    {
      "inputs": [],
      "name": "symbol",
      "outputs": [
        {
          "internalType": "string",
          "name": "",
          "type": "string"
        }
      ],
      "stateMutability": "view",
      "type": "function"
    },
    {
      "inputs": [],
      "name": "totalSupply",
      "outputs": [
        {
          "internalType": "uint256",
          "name": "",
          "type": "uint256"
        }
      ],
      "stateMutability": "view",
      "type": "function"
    },
    {
      "inputs": [
        {
          "internalType": "address",
          "name": "to",
          "type": "address"
        },
        {
          "internalType": "uint256",
          "name": "value",
          "type": "uint256"
        }
      ],
      "name": "transfer",
      "outputs": [
        {
          "internalType": "bool",
          "name": "",
          "type": "bool"
        }
      ],
      "stateMutability": "nonpayable",
      "type": "function"
    },
    {
      "inputs": [
        {
          "internalType": "address",
          "name": "from",
          "type": "address"
        },
        {
          "internalType": "address",
          "name": "to",
          "type": "address"
        },
        {
          "internalType": "uint256",
          "name": "amount",
          "type": "uint256"
        }
      ],
      "name": "transferFrom",
      "outputs": [
        {
          "internalType": "bool",
          "name": "",
          "type": "bool"
        }
      ],
      "stateMutability": "nonpayable",
      "type": "function"
    }
  ],
  "bytecode": "0x60806040526040518060400160405280600981526020017f49434f20546f6b656e0000000000000000000000000000000000000000000000815250600090816200004a9190620003f9565b506040518060400160405280600481526020017f49434f540000000000000000000000000000000000000000000000000000000081525060019081620000919190620003f9565b506012600260006101000a81548160ff021916908360ff160217905550348015620000bb57600080fd5b50600260009054906101000a900460ff1660ff16600a620000dd919062000663565b611388620000ec9190620006b4565b600381905550600354600460003373ffffffffffffffffffffffffffffffffffffffff1673ffffffffffffffffffffffffffffffffffffffff1681526020019081526020016000208190555033600660006101000a81548173ffffffffffffffffffffffffffffffffffffffff021916908373ffffffffffffffffffffffffffffffffffffffff160217905550620006ff565b600081519050919050565b7f4e487b7100000000000000000000000000000000000000000000000000000000600052604160045260246000fd5b7f4e487b7100000000000000000000000000000000000000000000000000000000600052602260045260246000fd5b600060028204905060018216806200020157607f821691505b602082108103620002175762000216620001b9565b5b50919050565b60008190508160005260206000209050919050565b60006020601f8301049050919050565b600082821b905092915050565b600060088302620002817fffffffffffffffffffffffffffffffffffffffffffffffffffffffffffffffff8262000242565b6200028d868362000242565b95508019841693508086168417925050509392505050565b6000819050919050565b6000819050919050565b6000620002da620002d4620002ce84620002a5565b620002af565b620002a5565b9050919050565b6000819050919050565b620002f683620002b9565b6200030e6200030582620002e1565b8484546200024f565b825550505050565b600090565b6200032562000316565b62000332818484620002eb565b505050565b5b818110156200035a576200034e6000826200031b565b60018101905062000338565b5050565b601f821115620003a95762000373816200021d565b6200037e8462000232565b810160208510156200038e578190505b620003a66200039d8562000232565b83018262000337565b50505b505050565b600082821c905092915050565b6000620003ce60001984600802620003ae565b1980831691505092915050565b6000620003e98383620003bb565b9150826002028217905092915050565b62000404826200017f565b67ffffffffffffffff81111562000420576200041f6200018a565b5b6200042c8254620001e8565b620004398282856200035e565b600060209050601f8311600181146200047157600084156200045c578287015190505b620004688582620003db565b865550620004d8565b601f19841662000481866200021d565b60005b82811015620004ab5784890151825560018201915060208501945060208101905062000484565b86831015620004cb5784890151620004c7601f891682620003bb565b8355505b6001600288020188555050505b505050505050565b7f4e487b7100000000000000000000000000000000000000000000000000000000600052601160045260246000fd5b60008160011c9050919050565b6000808291508390505b60018511156200056e57808604811115620005465762000545620004e0565b5b6001851615620005565780820291505b808102905062000566856200050f565b945062000526565b94509492505050565b6000826200058957600190506200065c565b816200059957600090506200065c565b8160018114620005b25760028114620005bd57620005f3565b60019150506200065c565b60ff841115620005d257620005d1620004e0565b5b8360020a915084821115620005ec57620005eb620004e0565b5b506200065c565b5060208310610133831016604e8410600b84101617156200062d5782820a905083811115620006275762000626620004e0565b5b6200065c565b6200063c84848460016200051c565b92509050818404811115620006565762000655620004e0565b5b81810290505b9392505050565b60006200067082620002a5565b91506200067d83620002a5565b9250620006ac7fffffffffffffffffffffffffffffffffffffffffffffffffffffffffffffffff848462000577565b905092915050565b6000620006c182620002a5565b9150620006ce83620002a5565b9250828202620006de81620002a5565b91508282048414831517620006f857620006f7620004e0565b5b5092915050565b611447806200070f6000396000f3fe608060405234801561001057600080fd5b50600436106100f55760003560e01c8063313ce5671161009757806395d89b411161006657806395d89b411461029c578063a0712d68146102ba578063a9059cbb146102d6578063dd62ed3e14610306576100f5565b8063313ce567146102125780633eaaf86b1461023057806370a082311461024e5780638da5cb5b1461027e576100f5565b806318160ddd116100d357806318160ddd1461017857806323b872dd1461019657806327e235e3146101c657806330e0789e146101f6576100f5565b8063024c2ddd146100fa57806306fdde031461012a578063095ea7b314610148575b600080fd5b610114600480360381019061010f9190610ca0565b610336565b6040516101219190610cf9565b60405180910390f35b61013261035b565b60405161013f9190610da4565b60405180910390f35b610162600480360381019061015d9190610df2565b6103e9565b60405161016f9190610e4d565b60405180910390f35b610180610463565b60405161018d9190610cf9565b60405180910390f35b6101b060048036038101906101ab9190610e68565b61046d565b6040516101bd9190610e4d565b60405180910390f35b6101e060048036038101906101db9190610ebb565b610495565b6040516101ed9190610cf9565b60405180910390f35b610210600480360381019061020b9190610e68565b6104ad565b005b61021a610710565b6040516102279190610f04565b60405180910390f35b610238610723565b6040516102459190610cf9565b60405180910390f35b61026860048036038101906102639190610ebb565b610729565b6040516102759190610cf9565b60405180910390f35b610286610772565b6040516102939190610f2e565b60405180910390f35b6102a4610798565b6040516102b19190610da4565b60405180910390f35b6102d460048036038101906102cf9190610f49565b610826565b005b6102f060048036038101906102eb9190610df2565b610928565b6040516102fd9190610e4d565b60405180910390f35b610320600480360381019061031b9190610ca0565b610961565b60405161032d9190610cf9565b60405180910390f35b6005602052816000526040600020602052806000526040600020600091509150505481565b6000805461036890610fa5565b80601f016020809104026020016040519081016040528092919081815260200182805461039490610fa5565b80156103e15780601f106103b6576101008083540402835291602001916103e1565b820191906000526020600020905b8154815290600101906020018083116103c457829003601f168201915b505050505081565b600033600660006101000a81548173ffffffffffffffffffffffffffffffffffffffff021916908373ffffffffffffffffffffffffffffffffffffffff160217905550610459600660009054906101000a900473ffffffffffffffffffffffffffffffffffffffff1684846109e8565b6001905092915050565b6000600354905090565b60008033905061047e858285610bb1565b6104898585856104ad565b60019150509392505050565b60046020528060005260406000206000915090505481565b600073ffffffffffffffffffffffffffffffffffffffff168373ffffffffffffffffffffffffffffffffffffffff160361051c576040517f08c379a000000000000000000000000000000000000000000000000000000000815260040161051390611048565b60405180910390fd5b600073ffffffffffffffffffffffffffffffffffffffff168273ffffffffffffffffffffffffffffffffffffffff160361058b576040517f08c379a0000000000000000000000000000000000000000000000000000000008152600401610582906110da565b60405180910390fd5b6000600460008573ffffffffffffffffffffffffffffffffffffffff1673ffffffffffffffffffffffffffffffffffffffff16815260200190815260200160002054905081811015610612576040517f08c379a00000000000000000000000000000000000000000000000000000000081526004016106099061116c565b60405180910390fd5b818103600460008673ffffffffffffffffffffffffffffffffffffffff1673ffffffffffffffffffffffffffffffffffffffff1681526020019081526020016000208190555081600460008573ffffffffffffffffffffffffffffffffffffffff1673ffffffffffffffffffffffffffffffffffffffff168152602001908152602001600020600082825401925050819055508273ffffffffffffffffffffffffffffffffffffffff168473ffffffffffffffffffffffffffffffffffffffff167fddf252ad1be2c89b69c2b068fc378daa952ba7f163c4a11628f55a4df523b3ef846040516107029190610cf9565b60405180910390a350505050565b600260009054906101000a900460ff1681565b60035481565b6000600460008373ffffffffffffffffffffffffffffffffffffffff1673ffffffffffffffffffffffffffffffffffffffff168152602001908152602001600020549050919050565b600660009054906101000a900473ffffffffffffffffffffffffffffffffffffffff1681565b600180546107a590610fa5565b80601f01602080910402602001604051908101604052809291908181526020018280546107d190610fa5565b801561081e5780601f106107f35761010080835404028352916020019161081e565b820191906000526020600020905b81548152906001019060200180831161080157829003601f168201915b505050505081565b600660009054906101000a900473ffffffffffffffffffffffffffffffffffffffff1673ffffffffffffffffffffffffffffffffffffffff163373ffffffffffffffffffffffffffffffffffffffff16146108b6576040517f08c379a00000000000000000000000000000000000000000000000000000000081526004016108ad906111fe565b60405180910390fd5b80600460003373ffffffffffffffffffffffffffffffffffffffff1673ffffffffffffffffffffffffffffffffffffffff1681526020019081526020016000206000828254610905919061124d565b92505081905550806003600082825461091e919061124d565b9250508190555050565b6000610957600660009054906101000a900473ffffffffffffffffffffffffffffffffffffffff1684846104ad565b6001905092915050565b6000600560008473ffffffffffffffffffffffffffffffffffffffff1673ffffffffffffffffffffffffffffffffffffffff16815260200190815260200160002060008373ffffffffffffffffffffffffffffffffffffffff1673ffffffffffffffffffffffffffffffffffffffff16815260200190815260200160002054905092915050565b600073ffffffffffffffffffffffffffffffffffffffff168373ffffffffffffffffffffffffffffffffffffffff1603610a57576040517f08c379a0000000000000000000000000000000000000000000000000000000008152600401610a4e906112f3565b60405180910390fd5b600073ffffffffffffffffffffffffffffffffffffffff168273ffffffffffffffffffffffffffffffffffffffff1603610ac6576040517f08c379a0000000000000000000000000000000000000000000000000000000008152600401610abd90611385565b60405180910390fd5b80600560008573ffffffffffffffffffffffffffffffffffffffff1673ffffffffffffffffffffffffffffffffffffffff16815260200190815260200160002060008473ffffffffffffffffffffffffffffffffffffffff1673ffffffffffffffffffffffffffffffffffffffff168152602001908152602001600020819055508173ffffffffffffffffffffffffffffffffffffffff168373ffffffffffffffffffffffffffffffffffffffff167f8c5be1e5ebec7d5bd14f71427d1e84f3dd0314c0f7b2291e5b200ac8c7c3b92583604051610ba49190610cf9565b60405180910390a3505050565b6000610bbd8484610961565b90507fffffffffffffffffffffffffffffffffffffffffffffffffffffffffffffffff8114610c375781811015610c29576040517f08c379a0000000000000000000000000000000000000000000000000000000008152600401610c20906113f1565b60405180910390fd5b610c3684848484036109e8565b5b50505050565b600080fd5b600073ffffffffffffffffffffffffffffffffffffffff82169050919050565b6000610c6d82610c42565b9050919050565b610c7d81610c62565b8114610c8857600080fd5b50565b600081359050610c9a81610c74565b92915050565b60008060408385031215610cb757610cb6610c3d565b5b6000610cc585828601610c8b565b9250506020610cd685828601610c8b565b9150509250929050565b6000819050919050565b610cf381610ce0565b82525050565b6000602082019050610d0e6000830184610cea565b92915050565b600081519050919050565b600082825260208201905092915050565b60005b83811015610d4e578082015181840152602081019050610d33565b60008484015250505050565b6000601f19601f8301169050919050565b6000610d7682610d14565b610d808185610d1f565b9350610d90818560208601610d30565b610d9981610d5a565b840191505092915050565b60006020820190508181036000830152610dbe8184610d6b565b905092915050565b610dcf81610ce0565b8114610dda57600080fd5b50565b600081359050610dec81610dc6565b92915050565b60008060408385031215610e0957610e08610c3d565b5b6000610e1785828601610c8b565b9250506020610e2885828601610ddd565b9150509250929050565b60008115159050919050565b610e4781610e32565b82525050565b6000602082019050610e626000830184610e3e565b92915050565b600080600060608486031215610e8157610e80610c3d565b5b6000610e8f86828701610c8b565b9350506020610ea086828701610c8b565b9250506040610eb186828701610ddd565b9150509250925092565b600060208284031215610ed157610ed0610c3d565b5b6000610edf84828501610c8b565b91505092915050565b600060ff82169050919050565b610efe81610ee8565b82525050565b6000602082019050610f196000830184610ef5565b92915050565b610f2881610c62565b82525050565b6000602082019050610f436000830184610f1f565b92915050565b600060208284031215610f5f57610f5e610c3d565b5b6000610f6d84828501610ddd565b91505092915050565b7f4e487b7100000000000000000000000000000000000000000000000000000000600052602260045260246000fd5b60006002820490506001821680610fbd57607f821691505b602082108103610fd057610fcf610f76565b5b50919050565b7f45524332303a207472616e736665722066726f6d20746865207a65726f20616460008201527f6472657373000000000000000000000000000000000000000000000000000000602082015250565b6000611032602583610d1f565b915061103d82610fd6565b604082019050919050565b6000602082019050818103600083015261106181611025565b9050919050565b7f45524332303a207472616e7366657220746f20746865207a65726f206164647260008201527f6573730000000000000000000000000000000000000000000000000000000000602082015250565b60006110c4602383610d1f565b91506110cf82611068565b604082019050919050565b600060208201905081810360008301526110f3816110b7565b9050919050565b7f45524332303a207472616e7366657220616d6f756e742065786365656473206260008201527f616c616e63650000000000000000000000000000000000000000000000000000602082015250565b6000611156602683610d1f565b9150611161826110fa565b604082019050919050565b6000602082019050818103600083015261118581611149565b9050919050565b7f4f6e6c7920746865206f776e65722063616e2063616c6c20746869732066756e60008201527f6374696f6e2e0000000000000000000000000000000000000000000000000000602082015250565b60006111e8602683610d1f565b91506111f38261118c565b604082019050919050565b60006020820190508181036000830152611217816111db565b9050919050565b7f4e487b7100000000000000000000000000000000000000000000000000000000600052601160045260246000fd5b600061125882610ce0565b915061126383610ce0565b925082820190508082111561127b5761127a61121e565b5b92915050565b7f45524332303a20617070726f76652066726f6d20746865207a65726f2061646460008201527f7265737300000000000000000000000000000000000000000000000000000000602082015250565b60006112dd602483610d1f565b91506112e882611281565b604082019050919050565b6000602082019050818103600083015261130c816112d0565b9050919050565b7f45524332303a20617070726f766520746f20746865207a65726f20616464726560008201527f7373000000000000000000000000000000000000000000000000000000000000602082015250565b600061136f602283610d1f565b915061137a82611313565b604082019050919050565b6000602082019050818103600083015261139e81611362565b9050919050565b7f45524332303a20696e73756666696369656e7420616c6c6f77616e6365000000600082015250565b60006113db601d83610d1f565b91506113e6826113a5565b602082019050919050565b6000602082019050818103600083015261140a816113ce565b905091905056fea26469706673582212205f136f64d56c990624dcea6a27f5fce7c1d5fb07bc49a02916f937e756a1d2f264736f6c63430008110033",
  "linkReferences": {},
  "deployedLinkReferences": {}
}